{
  "contractName": "Election",
  "abi": [
    {
      "constant": true,
      "inputs": [
        {
          "name": "",
          "type": "bytes24"
        }
      ],
      "name": "hash2candidateId",
      "outputs": [
        {
          "name": "",
          "type": "uint256"
        }
      ],
      "payable": false,
      "stateMutability": "view",
      "type": "function"
    },
    {
      "constant": true,
      "inputs": [],
      "name": "candidatesCount",
      "outputs": [
        {
          "name": "",
          "type": "uint256"
        }
      ],
      "payable": false,
      "stateMutability": "view",
      "type": "function"
    },
    {
      "constant": true,
      "inputs": [
        {
          "name": "",
          "type": "uint256"
        }
      ],
      "name": "id2pollingStations",
      "outputs": [
        {
          "name": "id",
          "type": "uint256"
        },
        {
          "name": "name",
          "type": "string"
        },
        {
          "name": "voteCount",
          "type": "uint256"
        },
        {
          "name": "amountOfEligibleVoters",
          "type": "uint256"
        },
        {
          "name": "location",
          "type": "string"
        }
      ],
      "payable": false,
      "stateMutability": "view",
      "type": "function"
    },
    {
      "constant": true,
      "inputs": [],
      "name": "id2pollingStationsCount",
      "outputs": [
        {
          "name": "",
          "type": "uint256"
        }
      ],
      "payable": false,
      "stateMutability": "view",
      "type": "function"
    },
    {
      "constant": true,
      "inputs": [
        {
          "name": "",
          "type": "uint256"
        }
      ],
      "name": "id2candidates",
      "outputs": [
        {
          "name": "id",
          "type": "uint256"
        },
        {
          "name": "name",
          "type": "string"
        },
        {
          "name": "party",
          "type": "string"
        },
        {
          "name": "voteCount",
          "type": "uint256"
        }
      ],
      "payable": false,
      "stateMutability": "view",
      "type": "function"
    },
    {
      "constant": true,
      "inputs": [
        {
          "name": "",
          "type": "address"
        }
      ],
      "name": "address2pollingStation",
      "outputs": [
        {
          "name": "id",
          "type": "uint256"
        },
        {
          "name": "name",
          "type": "string"
        },
        {
          "name": "voteCount",
          "type": "uint256"
        },
        {
          "name": "amountOfEligibleVoters",
          "type": "uint256"
        },
        {
          "name": "location",
          "type": "string"
        }
      ],
      "payable": false,
      "stateMutability": "view",
      "type": "function"
    },
    {
      "inputs": [],
      "payable": false,
      "stateMutability": "nonpayable",
      "type": "constructor"
    },
    {
      "anonymous": false,
      "inputs": [
        {
          "indexed": true,
          "name": "_candidateId",
          "type": "uint256"
        },
        {
          "indexed": true,
          "name": "_hash",
          "type": "bytes24"
        }
      ],
      "name": "votedEvent",
      "type": "event"
    },
    {
      "constant": false,
      "inputs": [
        {
          "name": "_stationID",
          "type": "uint256"
        }
      ],
      "name": "assignAddressToStation",
      "outputs": [],
      "payable": false,
      "stateMutability": "nonpayable",
      "type": "function"
    },
    {
      "constant": true,
      "inputs": [
        {
          "name": "_id",
          "type": "uint256"
        }
      ],
      "name": "getStation",
      "outputs": [
        {
          "name": "id",
          "type": "uint256"
        },
        {
          "name": "name",
          "type": "string"
        }
      ],
      "payable": false,
      "stateMutability": "view",
      "type": "function"
    },
    {
      "constant": true,
      "inputs": [
        {
          "name": "_id",
          "type": "uint256"
        }
      ],
      "name": "getCandidate",
      "outputs": [
        {
          "name": "id",
          "type": "uint256"
        },
        {
          "name": "name",
          "type": "string"
        },
        {
          "name": "party",
          "type": "string"
        }
      ],
      "payable": false,
      "stateMutability": "view",
      "type": "function"
    },
    {
      "constant": true,
      "inputs": [
        {
          "name": "_hash",
          "type": "bytes24"
        }
      ],
      "name": "getVoteCandidate",
      "outputs": [
        {
          "name": "id",
          "type": "uint256"
        },
        {
          "name": "name",
          "type": "string"
        },
        {
          "name": "party",
          "type": "string"
        }
      ],
      "payable": false,
      "stateMutability": "view",
      "type": "function"
    },
    {
      "constant": false,
      "inputs": [
        {
          "name": "_candidateId",
          "type": "uint256"
        },
        {
          "name": "_hash",
          "type": "bytes24"
        }
      ],
      "name": "vote",
      "outputs": [],
      "payable": false,
      "stateMutability": "nonpayable",
      "type": "function"
    }
  ],
  "bytecode": "0x60806040523480156200001157600080fd5b50620000976040805190810160405280600e81526020017f456b72656d20496d616d6f676c750000000000000000000000000000000000008152506040805190810160405280600381526020017f43485000000000000000000000000000000000000000000000000000000000008152506200079c640100000000026401000000009004565b6200011c6040805190810160405280600f81526020017f42696e616c692059696c646972696d00000000000000000000000000000000008152506040805190810160405280600881526020017f414b2050617274790000000000000000000000000000000000000000000000008152506200079c640100000000026401000000009004565b6200016e6040805190810160405280600681526020017f4164616c6172000000000000000000000000000000000000000000000000000081525061378d62000850640100000000026401000000009004565b620001c16040805190810160405280600b81526020017f41726e617675746b6f65790000000000000000000000000000000000000000008152506202bf7062000850640100000000026401000000009004565b620002146040805190810160405280600981526020017f417461c59f6568697200000000000000000000000000000000000000000000008152506205b9a862000850640100000000026401000000009004565b620002676040805190810160405280600881526020017f417663c4b16c61720000000000000000000000000000000000000000000000008152506205908a62000850640100000000026401000000009004565b620002ba6040805190810160405280600a81526020017f4261c49f63c4b16c617200000000000000000000000000000000000000000000815250620b45f962000850640100000000026401000000009004565b6200030d6040805190810160405280600d81526020017f426168c3a7656c6965766c657200000000000000000000000000000000000000815250620900ef62000850640100000000026401000000009004565b620003606040805190810160405280600a81526020017f42616bc4b1726bc3b679000000000000000000000000000000000000000000008152506203580962000850640100000000026401000000009004565b620003b36040805190810160405280600981526020017f426173616b7365686900000000000000000000000000000000000000000000008152506203bd1b62000850640100000000026401000000009004565b620004066040805190810160405280600a81526020017f42617972616d706173610000000000000000000000000000000000000000000081525062041ca962000850640100000000026401000000009004565b620004596040805190810160405280600881526020017f426573696b7461730000000000000000000000000000000000000000000000008152506202d04662000850640100000000026401000000009004565b620004ac6040805190810160405280600681526020017f4265796b6f7a00000000000000000000000000000000000000000000000000008152506203616662000850640100000000026401000000009004565b620004ff6040805190810160405280600c81526020017f4265796c696b6475657a756500000000000000000000000000000000000000008152506203204962000850640100000000026401000000009004565b620005526040805190810160405280600781526020017f4265796f676c75000000000000000000000000000000000000000000000000008152506203c91462000850640100000000026401000000009004565b620005a56040805190810160405280600e81526020017f4275657975656b63656b6d6563650000000000000000000000000000000000008152506202c70162000850640100000000026401000000009004565b620005f76040805190810160405280600781526020017f436174616c636100000000000000000000000000000000000000000000000000815250618a0962000850640100000000026401000000009004565b6200064a6040805190810160405280600981526020017f43656b6d656b6f6579000000000000000000000000000000000000000000000081525062027ec562000850640100000000026401000000009004565b6200069d6040805190810160405280600781526020017f4573656e6c6572000000000000000000000000000000000000000000000000008152506207091062000850640100000000026401000000009004565b620006f06040805190810160405280600881526020017f4573656e797572740000000000000000000000000000000000000000000000008152506206d13962000850640100000000026401000000009004565b620007436040805190810160405280600581526020017f457975657000000000000000000000000000000000000000000000000000000081525062050f1f62000850640100000000026401000000009004565b620007966040805190810160405280600581526020017f46616974680000000000000000000000000000000000000000000000000000008152506206942b62000850640100000000026401000000009004565b62000a18565b600460008154809291906001019190505550620007b862000910565b60045481600001818152505082816020018190525081816040018190525060008160600181815250508060008060045481526020019081526020016000206000820151816000015560208201518160010190805190602001906200081e92919062000939565b5060408201518160020190805190602001906200083d92919062000939565b5060608201518160030155905050505050565b6005600081548092919060010191905055506200086c620009c0565b60045481600001818152505082816020018190525081816060018181525050600081604001818152505080600160006005548152602001908152602001600020600082015181600001556020820151816001019080519060200190620008d492919062000939565b50604082015181600201556060820151816003015560808201518160040190805190602001906200090792919062000939565b50905050505050565b608060405190810160405280600081526020016060815260200160608152602001600081525090565b828054600181600116156101000203166002900490600052602060002090601f016020900481019282601f106200097c57805160ff1916838001178555620009ad565b82800160010185558215620009ad579182015b82811115620009ac5782518255916020019190600101906200098f565b5b509050620009bc9190620009f0565b5090565b60a06040519081016040528060008152602001606081526020016000815260200160008152602001606081525090565b62000a1591905b8082111562000a11576000816000905550600101620009f7565b5090565b90565b6115f88062000a286000396000f3fe6080604052600436106100af576000357c0100000000000000000000000000000000000000000000000000000000900463ffffffff16806303b026a1146100b4578063106e054d1461010e5780632d35a8a2146101c957806335b8e820146101f457806336d19e8b1461031b5780636eeb46b41461036b57806375a5e0901461049d5780638c55c196146105d2578063b0ebb61f146105fd578063c9877f6614610638578063f6e5718f14610766575b600080fd5b3480156100c057600080fd5b506100f8600480360360208110156100d757600080fd5b81019080803567ffffffffffffffff191690602001909291905050506108b1565b6040518082815260200191505060405180910390f35b34801561011a57600080fd5b506101476004803603602081101561013157600080fd5b81019080803590602001909291905050506108c9565b6040518083815260200180602001828103825283818151815260200191508051906020019080838360005b8381101561018d578082015181840152602081019050610172565b50505050905090810190601f1680156101ba5780820380516001836020036101000a031916815260200191505b50935050505060405180910390f35b3480156101d557600080fd5b506101de610a68565b6040518082815260200191505060405180910390f35b34801561020057600080fd5b5061022d6004803603602081101561021757600080fd5b8101908080359060200190929190505050610a6e565b604051808481526020018060200180602001838103835285818151815260200191508051906020019080838360005b8381101561027757808201518184015260208101905061025c565b50505050905090810190601f1680156102a45780820380516001836020036101000a031916815260200191505b50838103825284818151815260200191508051906020019080838360005b838110156102dd5780820151818401526020810190506102c2565b50505050905090810190601f16801561030a5780820380516001836020036101000a031916815260200191505b509550505050505060405180910390f35b34801561032757600080fd5b506103696004803603604081101561033e57600080fd5b8101908080359060200190929190803567ffffffffffffffff19169060200190929190505050610c0c565b005b34801561037757600080fd5b506103af6004803603602081101561038e57600080fd5b81019080803567ffffffffffffffff19169060200190929190505050610f7f565b604051808481526020018060200180602001838103835285818151815260200191508051906020019080838360005b838110156103f95780820151818401526020810190506103de565b50505050905090810190601f1680156104265780820380516001836020036101000a031916815260200191505b50838103825284818151815260200191508051906020019080838360005b8381101561045f578082015181840152602081019050610444565b50505050905090810190601f16801561048c5780820380516001836020036101000a031916815260200191505b509550505050505060405180910390f35b3480156104a957600080fd5b506104d6600480360360208110156104c057600080fd5b8101908080359060200190929190505050610fcf565b604051808681526020018060200185815260200184815260200180602001838103835287818151815260200191508051906020019080838360005b8381101561052c578082015181840152602081019050610511565b50505050905090810190601f1680156105595780820380516001836020036101000a031916815260200191505b50838103825284818151815260200191508051906020019080838360005b83811015610592578082015181840152602081019050610577565b50505050905090810190601f1680156105bf5780820380516001836020036101000a031916815260200191505b5097505050505050505060405180910390f35b3480156105de57600080fd5b506105e7611135565b6040518082815260200191505060405180910390f35b34801561060957600080fd5b506106366004803603602081101561062057600080fd5b810190808035906020019092919050505061113b565b005b34801561064457600080fd5b506106716004803603602081101561065b57600080fd5b8101908080359060200190929190505050611201565b604051808581526020018060200180602001848152602001838103835286818151815260200191508051906020019080838360005b838110156106c15780820151818401526020810190506106a6565b50505050905090810190601f1680156106ee5780820380516001836020036101000a031916815260200191505b50838103825285818151815260200191508051906020019080838360005b8381101561072757808201518184015260208101905061070c565b50505050905090810190601f1680156107545780820380516001836020036101000a031916815260200191505b50965050505050505060405180910390f35b34801561077257600080fd5b506107b56004803603602081101561078957600080fd5b81019080803573ffffffffffffffffffffffffffffffffffffffff169060200190929190505050611361565b604051808681526020018060200185815260200184815260200180602001838103835287818151815260200191508051906020019080838360005b8381101561080b5780820151818401526020810190506107f0565b50505050905090810190601f1680156108385780820380516001836020036101000a031916815260200191505b50838103825284818151815260200191508051906020019080838360005b83811015610871578082015181840152602081019050610856565b50505050905090810190601f16801561089e5780820380516001836020036101000a031916815260200191505b5097505050505050505060405180910390f35b60036020528060005260406000206000915090505481565b600060606108d56114c7565b6001600085815260200190815260200160002060a0604051908101604052908160008201548152602001600182018054600181600116156101000203166002900480601f0160208091040260200160405190810160405280929190818152602001828054600181600116156101000203166002900480156109975780601f1061096c57610100808354040283529160200191610997565b820191906000526020600020905b81548152906001019060200180831161097a57829003601f168201915b505050505081526020016002820154815260200160038201548152602001600482018054600181600116156101000203166002900480601f016020809104026020016040519081016040528092919081815260200182805460018160011615610100020316600290048015610a4d5780601f10610a2257610100808354040283529160200191610a4d565b820191906000526020600020905b815481529060010190602001808311610a3057829003601f168201915b50505050508152505090508392508060200151915050915091565b60045481565b6000606080610a7b6114f7565b6000808681526020019081526020016000206080604051908101604052908160008201548152602001600182018054600181600116156101000203166002900480601f016020809104026020016040519081016040528092919081815260200182805460018160011615610100020316600290048015610b3c5780601f10610b1157610100808354040283529160200191610b3c565b820191906000526020600020905b815481529060010190602001808311610b1f57829003601f168201915b50505050508152602001600282018054600181600116156101000203166002900480601f016020809104026020016040519081016040528092919081815260200182805460018160011615610100020316600290048015610bde5780601f10610bb357610100808354040283529160200191610bde565b820191906000526020600020905b815481529060010190602001808311610bc157829003601f168201915b5050505050815260200160038201548152505090508493508060200151925080604001519150509193909250565b600082118015610c1e57506004548211155b1515610c92576040517f08c379a000000000000000000000000000000000000000000000000000000000815260040180806020018281038252601c8152602001807f5468652063616e64696461746520646f6573206e6f742065786973740000000081525060200191505060405180910390fd5b610c9a6114c7565b600260003373ffffffffffffffffffffffffffffffffffffffff1673ffffffffffffffffffffffffffffffffffffffff16815260200190815260200160002060a0604051908101604052908160008201548152602001600182018054600181600116156101000203166002900480601f016020809104026020016040519081016040528092919081815260200182805460018160011615610100020316600290048015610d885780601f10610d5d57610100808354040283529160200191610d88565b820191906000526020600020905b815481529060010190602001808311610d6b57829003601f168201915b505050505081526020016002820154815260200160038201548152602001600482018054600181600116156101000203166002900480601f016020809104026020016040519081016040528092919081815260200182805460018160011615610100020316600290048015610e3e5780601f10610e1357610100808354040283529160200191610e3e565b820191906000526020600020905b815481529060010190602001808311610e2157829003601f168201915b505050505081525050905080606001518160400151101515610eee576040517f08c379a00000000000000000000000000000000000000000000000000000000081526004018080602001828103825260278152602001807f54686520616d6f756e74206f6620766f74657320657865656420746865206d6181526020017f7820766f7465730000000000000000000000000000000000000000000000000081525060400191505060405180910390fd5b82600360008467ffffffffffffffff191667ffffffffffffffff1916815260200190815260200160002081905550600080848152602001908152602001600020600301600081548092919060010191905055508167ffffffffffffffff1916837fea9363f7e0ac00fed4a10cb86ccd5807a0ec3605b8de822c00d46bf839ac848e60405160405180910390a3505050565b60006060806000600360008667ffffffffffffffff191667ffffffffffffffff19168152602001908152602001600020549050610fbb81610a6e565b809450819550829650505050509193909250565b6001602052806000526040600020600091509050806000015490806001018054600181600116156101000203166002900480601f0160208091040260200160405190810160405280929190818152602001828054600181600116156101000203166002900480156110815780601f1061105657610100808354040283529160200191611081565b820191906000526020600020905b81548152906001019060200180831161106457829003601f168201915b505050505090806002015490806003015490806004018054600181600116156101000203166002900480601f01602080910402602001604051908101604052809291908181526020018280546001816001161561010002031660029004801561112b5780601f106111005761010080835404028352916020019161112b565b820191906000526020600020905b81548152906001019060200180831161110e57829003601f168201915b5050505050905085565b60055481565b60016000828152602001908152602001600020600260003373ffffffffffffffffffffffffffffffffffffffff1673ffffffffffffffffffffffffffffffffffffffff16815260200190815260200160002060008201548160000155600182018160010190805460018160011615610100020316600290046111be929190611520565b506002820154816002015560038201548160030155600482018160040190805460018160011615610100020316600290046111fa929190611520565b5090505050565b6000602052806000526040600020600091509050806000015490806001018054600181600116156101000203166002900480601f0160208091040260200160405190810160405280929190818152602001828054600181600116156101000203166002900480156112b35780601f10611288576101008083540402835291602001916112b3565b820191906000526020600020905b81548152906001019060200180831161129657829003601f168201915b505050505090806002018054600181600116156101000203166002900480601f0160208091040260200160405190810160405280929190818152602001828054600181600116156101000203166002900480156113515780601f1061132657610100808354040283529160200191611351565b820191906000526020600020905b81548152906001019060200180831161133457829003601f168201915b5050505050908060030154905084565b6002602052806000526040600020600091509050806000015490806001018054600181600116156101000203166002900480601f0160208091040260200160405190810160405280929190818152602001828054600181600116156101000203166002900480156114135780601f106113e857610100808354040283529160200191611413565b820191906000526020600020905b8154815290600101906020018083116113f657829003601f168201915b505050505090806002015490806003015490806004018054600181600116156101000203166002900480601f0160208091040260200160405190810160405280929190818152602001828054600181600116156101000203166002900480156114bd5780601f10611492576101008083540402835291602001916114bd565b820191906000526020600020905b8154815290600101906020018083116114a057829003601f168201915b5050505050905085565b60a06040519081016040528060008152602001606081526020016000815260200160008152602001606081525090565b608060405190810160405280600081526020016060815260200160608152602001600081525090565b828054600181600116156101000203166002900490600052602060002090601f016020900481019282601f106115595780548555611596565b8280016001018555821561159657600052602060002091601f016020900482015b8281111561159557825482559160010191906001019061157a565b5b5090506115a391906115a7565b5090565b6115c991905b808211156115c55760008160009055506001016115ad565b5090565b9056fea165627a7a72305820cd8c5d8fb4cb4ddc0ac977cdfa022ef10219dbadc030b91b94fa0b0735817b3f0029",
  "source": "pragma solidity >=0.4.21 <0.7.0;\n\ncontract Election {\n    // Model a Candidate\n    struct Candidate {\n        uint id;\n        string name;\n        string party;\n        uint voteCount;\n    }\n    \n    // Model a polling station\n    struct PollingStation {\n        uint id;\n        string name;\n        uint voteCount;\n        uint amountOfEligibleVoters;\n        string location;\n    }\n\n    // Store Candidates\n    mapping(uint => Candidate) public id2candidates;\n    // Store Stations\n    mapping(uint => PollingStation) public id2pollingStations;\n\n    mapping(address => PollingStation) public address2pollingStation;\n\n    // hash2candidateID\n    mapping(bytes24 => uint) public hash2candidateId;\n\n    // Store Candidates Count\n    uint public candidatesCount;\n\n    // Store Stations Count\n    uint public id2pollingStationsCount;\n\n    // voted event\n    event votedEvent (\n        uint indexed _candidateId,\n        bytes24 indexed _hash\n    );\n\n    // Constructor\n    constructor() public {\n        // Add candidates\n        addCandidate(\"Ekrem Imamoglu\", \"CHP\");\n        addCandidate(\"Binali Yildirim\", \"AK Party\");\n        // Add polling stations\n        addStation(\"Adalar\",14221);\n        addStation(\"Arnavutkoey\",180080);\n        addStation(\"Ataşehir\",375208);\n        addStation(\"Avcılar\",364682);\n        addStation(\"Bağcılar\",738809);\n        addStation(\"Bahçelievler\",590063);\n        addStation(\"Bakırköy\",219145);\n        addStation(\"Basaksehi\",245019);\n        addStation(\"Bayrampasa\",269481);\n        addStation(\"Besiktas\",184390);\n        addStation(\"Beykoz\",221542);\n        addStation(\"Beylikduezue\",204873);\n        addStation(\"Beyoglu\",248084);\n        addStation(\"Bueyuekcekmece\",182017);\n        addStation(\"Catalca\",35337);\n        addStation(\"Cekmekoey\",163525);\n        addStation(\"Esenler\",461072);\n        addStation(\"Esenyurt\",446777);\n        addStation(\"Eyuep\",331551);\n        addStation(\"Faith\",431147);\n    }\n    \n    // Add a candidate to the election\n    function addCandidate (string memory _name, string memory _party) private {\n        candidatesCount ++;\n        Candidate memory candidate;\n        candidate.id = candidatesCount;\n        candidate.name = _name;\n        candidate.party = _party;\n        candidate.voteCount = 0;\n        // Add the candidate to the mapping\n        id2candidates[candidatesCount] = candidate;\n    }\n\n    // Add a polling station to the election\n    function addStation (string memory _name, uint _amountOfEligibleVoters) private {\n        id2pollingStationsCount ++;\n        PollingStation memory station;\n        station.id = candidatesCount;\n        station.name = _name;\n        station.amountOfEligibleVoters = _amountOfEligibleVoters;\n        station.voteCount = 0;\n        // Add the polling stations to the mapping\n        id2pollingStations[id2pollingStationsCount] = station;\n    }\n\n    // Add a polling station to the election\n    // Assign an address to the station\n    function assignAddressToStation (uint _stationID) public {\n        address2pollingStation[msg.sender] = id2pollingStations[_stationID];\n    }\n\n    function getStation(uint _id) public view returns(uint id, string memory name) {\n        PollingStation memory station;\n        station = id2pollingStations[_id];\n        id = _id;\n        name = station.name;\n    }\n\n    function getCandidate(uint _id) public view returns(uint id, string memory name, string memory party){\n        Candidate memory candidate;\n        candidate = id2candidates[_id];\n        id = _id;\n        name = candidate.name;\n        party = candidate.party;\n    }\n\n    function getVoteCandidate(bytes24 _hash) public view returns(uint id, string memory name, string memory party){\n        uint candidateId = hash2candidateId[_hash];\n        (id, name, party) = getCandidate(candidateId);\n    }\n\n    // TODO\n    //function getStationByAdress() public returns(PollingStation memory s) {\n    //    return address2pollingStation[msg.sender];\n    //}\n\n    // Execute the vote\n    function vote (uint _candidateId, bytes24 _hash) public {\n        // require that they haven't voted before\n        // require(voters[msg.sender]==false);\n\n        // Check if the require a valid candidate\n        require(_candidateId > 0 && _candidateId <= candidatesCount, \"The candidate does not exist\");\n\n        // Find the polling station\n        PollingStation memory station = address2pollingStation[msg.sender];\n\n        // Check if the current vote count is lower than the max amoiunt of eligible voters\n        require(station.voteCount < station.amountOfEligibleVoters, \"The amount of votes exeed the max votes\");\n\n        // record that voter has voted for a candidate\n        hash2candidateId[_hash] = _candidateId;\n\n        // update candidate vote Count\n        id2candidates[_candidateId].voteCount ++;\n\n        // trigger voted event\n        emit votedEvent(_candidateId, _hash);\n    }\n}",
  "sourcePath": "/Users/sebastianerhardt/Projects/cdtm/election/election/contracts/Election.sol",
  "compiler": {
    "name": "solc",
    "version": "0.5.0+commit.1d4f565a.Emscripten.clang"
  },
  "schemaVersion": "3.0.9",
  "updatedAt": "2019-05-18T14:38:11.820Z",
  "devdoc": {
    "methods": {}
  },
  "userdoc": {
    "methods": {}
  }
}